:100000000C94A20F0C94CA0F0C94CA0F0C94CA0F34
:100010000C94CA0F0C94CA0F0C94CA0F0C94CA0FFC
:100020000C94CA0F0C94CA0F0C9412190C948419D6
:100030000C94CA0F0C94CA0F0C94CA0F0C94CA0FDC
:100040000C94CA0F0C94CA0F0C94CA0F0C94CA0FCC
:100050000C94CA0F0C94CA0F0C94CA0F0C948023F2
:100060000C94CA0F0C94CA0F0C94CA0F0C94CA0FAC
:100070000C94CA0F0C94CA0F0C94CA0F0C94CA0F9C
:100080000C94CA0F0C94CA0F0C94CA0F0C94CA0F8C
:100090000C94CA0F0C94CA0F0C94CA0F0C94CA0F7C
:1000A0000C94CA0F0C94CA0F0C94CA0F5452414EB0
:1000B00053504F525400424154544C4553484950B8
:1000C000004352554953455200424F4D424552005C
:1000D000464947485445520048454C49004D49530C
:1000E00053494C455300524F434B455400415254E1
:1000F000494C4C4552590042494754414E4B0054DB
:10010000414E4B004153534953540053434F5554B0
:1001100000535045434F5053004D45434800534F03
:100120004C444945520041545441434B004D4F56B5
:100130004500534F554E44204F464600534F554EB1
:1001400044204F4E000A1E32283246A03C96785A70
:10015000C8DCB4FF7853504545440041544B007807
:10016000001E01190111010B010401FF00F700ED50
:1001700000E600DD00D800D000C900C100B600AC28
:10018000000A0B0C000102030405060708090F0D05
:100190000E43414E43454C00454E44205455524E6B
:1001A00000554E4954204C494D4954205245414335
:1001B000484544002020000000000000000000F03E
:1001C000E0F0E0F0E0F060F02070003000000000AF
:1001D000000000000000000000000000000000001F
:1001E0000030207060F0E0F0E0F0E0F000F000009F
:1001F00000000000000000000000000000000007F8
:1002000003070103000100000000000000000000DF
:1002100000000000000000000000000000000000DE
:1002200000000000000000010103030700070000B8
:10023000000000000000000000000000000000E0DE
:10024000C0E080C00080000000000000000000004E
:10025000000000000000000000000000000000009E
:10026000000000C080C080C080C080C080C080C04E
:1002700000C0000000000000000000000000000FAF
:10028000070F070F070F060F040E000C00000000F9
:10029000000000000000000000000000000000005E
:1002A0000000003F1F3F1F3F073F0F1F1D3F397FCB
:1002B000307B007000000000000000FCF8FC78FCBF
:1002C000387C183C081C000C0000000000000000F6
:1002D000000000000000000000000000000000001E
:1002E00000000000000C081C183C387C78FCF8FC6E
:1002F00000FC000000000000000000010001000000
:1003000000000000000000000000000000000000ED
:1003100000000000000000000000000000000000DD
:1003200000000000000000000000000000000001CC
:1003300000010000000000000000008000800000BC
:1003400000000000000000000000000000000000AD
:10035000000000000000000000000000000000009D
:10036000000000000000000000000000000000008D
:1003700000000000000000000000003F1F3F1E3F83
:100380001C3E183C10380030000000000000000047
:10039000000000000000000000000000000000005D
:1003A00000000000000000FF7EFF7EFF1EFF3E7F7A
:1003B00076FF66FF00EFF0F89C8E8783878E9CF8AF
:1003C000F00000FEFF0303030303070EFCF8000028
:1003D000FEFF0303030303070EFCF80000FFFF000A
:1003E000000000000000FFFF0000FEFF8383838306
:1003F00083C7EE7C380000F8FC0E07030303070EEA
:10040000FCF800003F7FE0C08080C0E07F3FFFFF3E
:1004100001010101010101FFFF0000FFFF0C0C0CB5
:100420000C1C3E77E3C100007FFFC0C0C0C0C0E02D
:10043000703F1F00001F3F70E0C0C0C0E0703F1F52
:1004400000007FFFC1C1C1C1C1E3773E1C00001F96
:100450003F70E0C0C0C0E0703F1F0000000000011E
:10046000FFFF01000000D5F08D14A1C881CFD9F1A4
:10047000AF2000504C41594552203200504C415958
:1004800045522031004D3A004441593A00010204DE
:100490000810204080181001030201160C150E18D8
:1004A00018181818181717171717171717171717D7
:1004B0001717161816171718181A181819181716C4
:1004C00018181619161818181719181818161718B2
:1004D000180E0E0E0E180E0E0E18180E0E0E0E0E14
:1004E0000E0E0E1A18181618190E1E1410101010D1
:1004F0001010110E18181818180E0E0E0E181817C6
:100500001B0E14130E0E18181602120607181817D1
:1005100017180E120E181617170E120E0E0E1817A9
:10052000020C120B0D07161717160E120E191717BD
:10053000180E120E0E1818020C090E040B0D0716D9
:10054000171716120E1717171818120E1818180367
:1005500008191818040B0818181718120E1817176E
:10056000180E1218171818030D0718181903081871
:1005700018180E1218181717170E12161717160438
:100580000B0D070E020A0918180E0E120E18171777
:10059000190E120E16171716040B0D120A0917184A
:1005A0000E0E14130E171716180E120E1817171812
:1005B00018040512091618180E0E120E0E1B171825
:1005C000180E0E0E0E18181818180E151010101000
:1005D0001010131F0E19181618181A0E0E0E0E0EE4
:1005E0000E0E0E18180E0E0E180E0E0E0E181817F0
:1005F0001618181819171818181619161818161783
:10060000181918181A181817171618161717171771
:100610001717171717171717171818181818181467
:100620000C0208000A1108130A17161819181818CE
:1006300018161712161818181819181617180E0E5B
:100640000E0E0E0E0E0E0E120E0E0E0E0E0E0E0EC6
:1006500018180E161802060607180E1218020606BB
:100660000718160E18180E17020A00000D060606C7
:10067000060A00000D07170E18180E020A000001E6
:100680000000000000000100000D070E18180E0306
:1006900000000000000C05120B0000000000080E16
:1006A00018190E03000000000008181203000000D3
:1006B0000000080E19180E040B00000000081812A4
:1006C00003000000000C090E18180E1903000100A9
:1006D0000008191D030000010008190E18180E1853
:1006E0000405050B0008181803000C050509180E71
:1006F000181A0E0E0E1C180300081818030008180C
:100700001C0E0E0E1A181E181817160300081818BB
:10071000030008161718181F180C0C030002010814
:100720000B090A180E1819030001081717171718D4
:100730001E1A18040B0C0916161A17180E0E181785
:1007400004091818181617180E0E191717190E0E77
:100750000E1817180E0E1817180E0E0E0E0E18186B
:100760000E0E171818180E0E0E0E18180E0E0E0E6E
:10077000181818170E0E18180E0E0E0E0E18171841
:100780000E0E1817180E0E0E191717190E0E181731
:1007900016181818020717180E0E18171A16160230
:1007A0000A0D07181A1F1817171717030100081941
:1007B0001818183E004152445557415253004241C7
:1007C00054544C4500534B49524D49534800424103
:1007D000434B20574954482041004D554C544950F3
:1007E0004C41594552004E45572047414D450072F6
:1007F0001000000000100000020000100000004087
:100800000100000000E03E0301F1FF01033EFF0193
:100810000101FF39390181FF010101FFF90103FFE6
:10082000010101FFFF010101FF003FE10101FF01A3
:100830008101FF0101E1FF3E0301F1FF01033EFFE2
:10084000010101FF39390181FFC381013F21E1A38A
:100850003E000001400000001000000200001000F7
:10086000000000080000000210000000200140000D
:10087000000200000000FC878080F81F13F08080D9
:10088000FF808080FFF880809FFF808080FF9F80B6
:10089000C07F60C0809F9F80C0603F00007FC0809D
:1008A00080E03FE08080C0FF878080F81F13F080E9
:1008B00080FF808080FFF880809FFCC48786FC805A
:1008C00080C17F00000002000040012000000010F5
:1008D00002000000080403090412010002EF0201F3
:1008E00040412336800001010203014172647569B1
:1008F0006E6F204C4C430041726475626F7900103A
:10090000100000000000000000F0F01CFCA6FEBB80
:10091000FFBDFFBDFFCDFF71FF01FF83FFFEFE00A6
:10092000001C1C343C263E233F213FEBFF22FF08E6
:10093000FF4AFF74FF64FF14FFB8FFC7FF7C7C0011
:10094000000000000000000000E0E038F84CFC76F9
:10095000FE7AFE7AFE9AFEE2FE02FE06FEFCFC0035
:1009600000383868784C7C567E437FD6FF05FF11EF
:10097000FF55FF69FF49FF28FF70FF8FFFF9F9005E
:1009800000F8F808F808F808F80CFCA6FEBBFFBD54
:10099000FFBDFFCDFF71FF01FF02FE04FC04FC045C
:1009A000FC030302030203ECEF3BFF12FF46FF765A
:1009B000FF74FF04FF14FFB2FFC3FF797F0C0F0227
:1009C00003F0F010F010F010F018F84CFC76FE7AFE
:1009D000FE7AFE9AFEE2FE02FE04FC08F808F80821
:1009E000F8070704070407F8FF36FF0DFF4DFF6DFA
:1009F000FF69FF09FF28FF64FF86FFF2FF181F044D
:100A000007C0C040C0C0C08080FCFC06FEABFF95A4
:100A1000FFA9FFD5FFE9FFC1FF01FF03FF86FEFC31
:100A2000FC0D0F080F080F080F080FF8FF20FF0834
:100A3000FF4AFF74FF65FF15FFB8FFC0FF617F3FEE
:100A40003F8080808080800000F8F80CFC56FE2AF1
:100A5000FE52FEAAFED2FE82FE02FE06FE0CFCF84C
:100A6000F81B1F101F111F111F111FF0FF41FF1155
:100A7000FF15FF69FF4BFF2BFF70FF80FFC3FF7F58
:100A80007F0000F8F888F8A8F8ACFC26FEFAFECA49
:100A9000FEDAFEDAFECAFE06FEDCFCB0F060E0C064
:100AA000C0000000000000FFFF80FF22FF42FF02A5
:100AB000FF02FF02FF02FF03FF43FF23FF80FFFF50
:100AC000FF00007C7C447CD4FC56FE13FF7DFF6558
:100AD000FF6DFF6DFF65FF83FFEEFED8F830F0E09D
:100AE000E0000000000000FFFF80FF51FF01FF4118
:100AF000FF01FF01FF01FF41FF01FF51FF80FFFFE9
:100B0000FF0000C0C060E030F090F050F0D8F80C6A
:100B1000FC06FE02FE22FE72FE22FE02FE06FEFC25
:100B2000FC00007F7FC0FF8FFF2CFF48FF2FFF8C52
:100B3000FF88FF80FF28FF40FF28FF80FF707F1F96
:100B40001F0000C0C060E030F090F050F0D8F80C0A
:100B5000FC06FE02FE22FE72FE22FE02FE06FEFCE5
:100B6000FC00007F7FC0FF8FFF4CFF28FF4FFF8CF2
:100B7000FF88FF80FF48FF20FF48FF80FF707F1F36
:100B80001FF0F010F0D0F0D0F0D8F8ECFCF4FCF44A
:100B9000FCC6FEBAFEBAFEC6FEF4FC0CFC38F8E059
:100BA000E00303FEFF82FF40FF20FF40FF21FF41E3
:100BB000FF21FF41FF21FF41FF20FF40FF80FFFF9A
:100BC000FFF8F808F868F868F86CFC76FEFAFEFAA8
:100BD000FEE3FFDDFFDDFFE3FF7AFE06FE1CFCF017
:100BE000F00101FFFF81FF20FF50FF20FF50FF2099
:100BF000FF50FF20FF50FF20FF50FF20FF80FFFF2E
:100C0000FFFCFC04FCF4FCF6FEF2FEFBFFD9FF8DBA
:100C1000FFFDFFFDFFE1FFDDFFDDFFE1FF01FF0362
:100C2000FFFFFF82FF20FF40FF20FF40FF21FF4129
:100C3000FF21FF41FF21FF41FF21FF40FF20FF80F7
:100C4000FFFEFE02FE7AFE7BFF79FF7DFFECFFC612
:100C5000FFFEFFFEFFF0FFEEFFEEFF70FF00FF0163
:100C6000FFFFFF81FF50FF20FF50FF20FF50FF20BC
:100C7000FF50FF20FF50FF20FF50FF20FF50FF805C
:100C8000FF1E1E333F2D3FEDFF5BFF1AFEBAFE36FF
:100C9000FE74FC76FEEAFEFAFECAFEB2FEB2FE0664
:100CA000FE000000000000FFFF80FF45FF2AFF4418
:100CB000FF2BFF43FF23FF43FF23FF43FF21FF8061
:100CC000FF0F0F191F161FF6FF2DFF8DFF5DFF1B76
:100CD000FFBAFEBBFFF5FFFDFFE5FFD9FFD9FF031C
:100CE000FF000000000000FFFF80FF22FF55FF22F1
:100CF000FF55FF21FF51FF21FF51FF21FF50FF80D2
:100D0000FF8080C0C060E03EFE03FF55FF2AFF0069
:100D1000FF3DFF01FFF3FF06FEECFC18F830F0E0AA
:100D2000E0FFFF80FF28FF4CFF2FFF4EFF2CFF4806
:100D3000FF20FF40FF20FF40FF21FF80FFF8FF0F53
:100D40000F8080C0C060E038F80CFC56FEAAFE029E
:100D5000FEF6FE04FCECFC08F8D8F810F030F0E0E9
:100D6000E0FFFF80FF48FF2CFF4CFF2DFF48FF28CE
:100D7000FF40FF20FF41FF20FF43FF80FFF8FF0FF0
:100D80000F8080C0C060E0BFFF88FF66FFEEFFDD20
:100D9000FFBAFE74FCEFFF01FF01FF01FF7FFFC000
:100DA000C03F3FE0FF0FFF58FF9FFF1EFF5CFF9912
:100DB000FF53FF07FF4EFF84FF40FF00FF80FFFF50
:100DC000FF8080C0C060E0BFFF88FF66FFEEFFDDF0
:100DD000FFBAFE74FCEFFF01FF01FF01FF7FFFC0C0
:100DE000C03F3FE0FF0FFF98FF5FFF1EFF9CFF59D2
:100DF000FF93FF07FF8EFF44FF80FF00FF80FFFF90
:100E0000FFE3E333F31BFB0FFF0EFEC6FEFEFE7691
:100E1000FEF6FE6FFF9FFF5BFBAFFF65FD54FC849A
:100E2000FC181F161F373F273F273F273F263F2528
:100E30003F223F253F223F293F3E3F02030203035B
:100E400003E3E333F31FFF0BFB0FFFC6FEFCFC764F
:100E5000FEF7FF6FFF9BFB59F9AFFF55FD64FC8464
:100E6000FC181F161F373F273F273F273F263F25E8
:100E70003F223F253F223F293F3E3F02030203031B
:100E800003E0E030F098F88CFC86FE82FEC6FEF4AB
:100E9000FCF4FCE6FEF3FFF9FFFDFF41FFEFFF1856
:100EA000F80101030302033E3F6D7F437F007F0192
:100EB0007F027F037F067F4F7F6E7F203F3E3F0391
:100EC00003F0F098F84CFC46FEC3FFC1FF63FFFA45
:100ED000FE7AFEF3FF79FFFCFF7EFF20FF77FF8C99
:100EE000FC0000010101013B3B6E7F417F007F0060
:100EF0007F017F017F037F477F777F101F1F1F01C7
:100F00000170F098F848F828F828F8ECFCF6FEDBB9
:100F1000FFDDFFDDFFCDFFC1FF67FFF2FE72FE02C6
:100F2000FE0C0F7B7F427F027F027F07FF0FFF3B9C
:100F3000FF7FFF7BFF7FFF03FF057F777F151F107C
:100F40001F38F8CCFC24FC14FC14FCF6FEFBFFED6F
:100F5000FFEEFFEEFFE6FFE0FFB3FFF9FFB9FF0191
:100F6000FF06073D3F617F417FC1FF83FF07FF1DF4
:100F7000FF3FFF3DFF3FFF01FFC2FF7B7F0A0F08DE
:100F80000F00004040A0E0B0F030F0F8F8D8F8686A
:100F9000F886FE86FE86FE84FC68F8D8F8F0F0003D
:100FA0000000000000030307071F1F0F0F1A1F0E8A
:100FB0000F1E1F0A0F1E1F0E0F1A1F0E0F0707000E
:100FC000000000808040C060E060E0F0F0B0F0D051
:100FD000F00CFC0CFC0CFC08F8D0F0B0F0E0E000E9
:100FE000000000000007070F0F1E1F1F1F151F1C0A
:100FF0001F1D1F151F1D1F1D1F141F1D1F0F0F005D
:1010000000D0D0E8E870F070F030F004F43AFA5410
:10101000FC20FE4FFF2AFF4FFF00F070F0F0F0E0E1
:10102000E0030307070F0F3F3F1A1F3E3F1A1F3E03
:101030003F1A1F3E3F1A1F3E3F1A1F3E3F1F1F0F02
:101040000FA0A0D0D0E0E0E0E060E008E874F4A8F1
:10105000F840FC9EFE54FE9EFE00E0E0E0E0E0C0B2
:10106000C007070F0F1E1F3E3F343F3C3F343F3C3D
:101070003F343F3C3F343F3C3F343F3C3F3F3F1FCA
:101080001F0000C0C020E0F0F008F80CFC6CFCFC75
:10109000FC98F860E0A0E0A0E0A0E0A0E0E0E0C004
:1010A000C00000030306070D0F1B1F3B3F1B1F3B28
:1010B0003F1B1F3C3F1B1F3B3F1B1F3B3F1F1F3F57
:1010C0003F0000808040C0E0E010F018F8D8F8F849
:1010D000F830F0C0C040C040C040C040C0C0C08078
:1010E00080000007070C0F1B1F363F363F363F3787
:1010F0003F373F383F373F373F373F373F3F3F3F2F
:101100003F1010FCFC06FEABFF55FFA9FFD5FF0901
:10111000FFD5FF0BFF16FECCFC7878000000000026
:1011200000000001017F7FC6FFB9FF15FF65FF7555
:10113000FF4BFF09FF22FFEBFF213F233F263E34F9
:101140003C1C1CF8F80CFC56FEAAFE52FEAAFE122D
:10115000FEAAFE16FE2CFC98F8F0F000000000003D
:101160000000000303FEFF8DFF72FF2BFF4BFF6AA1
:10117000FF57FF12FF04FFD7FF427E467E4C7C687C
:101180007838380CFC04FC04FC56FEABFF55FFA974
:10119000FFD5FF09FFD5FF0BFFD6FE0CFC08F808B2
:1011A000F8F8F802030C0F787FC2FFB6FF15FF01B5
:1011B000FF75FF75FF45FF11FF3AFFECEF020302D9
:1011C00003030318F808F808F8ACFC56FEAAFE5210
:1011D000FEAAFE12FEAAFE16FEACFC18F810F010D5
:1011E000F0F0F00407181FF0FF84FF6DFF2AFF03E3
:1011F000FF6BFF6AFF4BFF0AFF35FFF8FF04070490
:10120000070707FCFC06FEABFF55FF09FF15FF01B2
:10121000FF05FF01FF15FF03FF86FEFCFCC0C04079
:10122000C0C0C03F3F607FC0FFB9FF15FF65FF74BE
:10123000FF4AFF08FF20FFF8FF080F080F080F08FC
:101240000F0D0FF8F80CFC56FEAAFE12FE2AFE0245
:10125000FE0AFE02FE2AFE06FE0CFCF8F8808080E4
:101260008080807F7FC0FF81FF72FF2AFF4AFF6876
:10127000FF54FF10FF00FFF0FF111F111F111F107F
:101280001F1B1FC0C060E0B0F0DCFC06FECAFEDA27
:10129000FEDAFECAFEFAFE26FEACFCA8F888F8F8D4
:1012A000F80000FFFF80FF2BFF4BFF2BFF1AFF32E0
:1012B000FF1AFF2AFF4AFF2AFF80FFFFFF000000FE
:1012C000000000E0E030F0D8F8EEFE83FF65FF6D2F
:1012D000FF6DFF65FF7DFF13FF56FED4FC447C7C51
:1012E0007C0000FFFF80FF55FF05FF55FF0DFF1934
:1012F000FF0DFF55FF05FF55FF80FFFFFF000000BA
:10130000000000FCFC06FEFAFEDAFE8AFEDAFEFAB7
:10131000FEF6FE0CFCD8F850F090F030F060E0C023
:10132000C000001F1F707F81FF29FF41FF29FF813F
:10133000FF89FF8CFF2FFF48FF2CFF8FFFC0FF7F2F
:101340007F0000FCFC06FEFAFEDAFE8AFEDAFEFAF8
:10135000FEF6FE0CFCD8F850F090F030F060E0C0E3
:10136000C000001F1F707F81FF49FF21FF49FF81DF
:10137000FF89FF8CFF4FFF28FF4CFF8FFFC0FF7FCF
:101380007F0000E0E038F80CFCF4FCC6FEBAFEBAC0
:10139000FEC6FEF4FCF4FCECFCD8F8D0F0D0F01063
:1013A000F0F0F0FFFF80FF4CFF28FF49FF29FF49C5
:1013B000FF29FF49FF29FF4DFF2EFF4CFF82FFFE53
:1013C000FF0303F0F01CFC06FE7AFEE3FFDDFFDD09
:1013D000FFE3FFFAFEFAFEF6FE6CFC68F868F80818
:1013E000F8F8F8FFFF80FF26FF54FF24FF54FF2486
:1013F000FF54FF24FF54FF26FF57FF26FF81FFFF06
:10140000FF010103FF01FFE1FFDDFFDDFFE1FFFD64
:10141000FFFDFF8DFFD9FFFBFFF2FEF6FEF4FC049B
:10142000FCFCFC80FF2CFF48FF29FF49FF29FF49F6
:10143000FF29FF49FF29FF48FF2CFF4CFF2CFF82AB
:10144000FFFFFF01FF00FF70FFEEFFEEFFF0FFFE6A
:10145000FFFEFFC6FFECFF7DFF79FF7BFF7AFE02F8
:10146000FEFEFE80FF56FF24FF54FF24FF54FF249E
:10147000FF54FF24FF54FF24FF56FF26FF56FF8131
:10148000FFFFFF06FEB2FEB2FECAFEFAFEEAFE76DD
:10149000FE74FC36FEBAFE9AFE5BFFEDFF2D3F3375
:1014A0003F1E1E80FF21FF43FF23FF43FF23FF4317
:1014B000FF2BFF4CFF2FFF4FFF80FFFFFF000000BF
:1014C00000000003FFD9FFD9FFE5FFFDFFF5FFBBDB
:1014D000FFBAFE1BFFDDFFCDFF2DFFF6FF161F1924
:1014E0001F0F0F80FF50FF21FF51FF21FF51FF21F0
:1014F000FF55FF26FF57FF27FF80FFFFFF0000007B
:10150000000000E0E030F0D8F8ECFCE6FEF3FF79F4
:10151000FF3DFF00FF2AFF55FF03FF3EFE60E0C0D6
:10152000C080800F0FF8FF81FF21FF41FF20FF40A7
:10153000FF20FF48FF2CFF4EFF2FFF4CFF28FF80AE
:10154000FFFFFFE0E030F0D0F0D8F8E8F8ECFCF472
:10155000FCF6FE02FEAAFE56FE0CFC38F860E0C067
:10156000C080800F0FF8FF83FF43FF21FF41FF2062
:10157000FF40FF28FF48FF2DFF4CFF2CFF48FF8056
:10158000FFFFFFC0C07FFF01FFFDFF01FFEFFF7402
:10159000FCBAFEDDFFEEFF66FF88FFBFFF60E0C024
:1015A000C08080FFFF80FF3EFF51FF84FF4EFF079A
:1015B000FF53FF99FF5CFF1EFF9FFF58FF0FFFE0E7
:1015C000FF3F3FC0C07FFF01FFFDFF01FFEFFF7442
:1015D000FCBAFEDDFFEEFF66FF88FFBFFF60E0C0E4
:1015E000C08080FFFF80FF3EFF91FF44FF8EFF071A
:1015F000FF93FF59FF9CFF1EFF5FFF98FF0FFFE067
:10160000FF3F3F84FC54FCE5FDEFFF5BFBDFFFEF9A
:10161000FFF6FEF6FEFEFEC6FE0EFE0FFF1BFB33C0
:10162000F3E3E30303020302033E3F293F223F2586
:101630003F223F253F263F273F273F273F373F1683
:101640001F181F84FC64FCD5FDEFFF59F9DBFBEF8D
:10165000FFF7FFF6FEFCFCC6FE0FFF0BFB1FFF3380
:10166000F3E3E30303020302033E3F293F223F2546
:101670003F223F253F263F273F273F273F373F1643
:101680001F181F18F8EFFF41FFFDFFF9FFF3FFE6FA
:10169000FEF4FCF4FCC6FEB2FEA6FECCFCD8F8308C
:1016A000F0E0E003033E3F203F6E7F4F7F067F0365
:1016B0007F027F017F007F437F6D7F3E3F020303F8
:1016C0000301018CFC77FF20FF7EFFFCFF79FFF315
:1016D000FF7AFEFAFE63FFD9FFD3FF66FE6CFC982B
:1016E000F8F0F001011F1F101F777F477F037F0174
:1016F0007F017F007F007F417F6E7F3B3B010101C7
:1017000001000002FE72FEF2FE67FFC1FFDDFFDD99
:10171000FFDDFFDBFFF6FEECFCE8F8E8F848F898A0
:10172000F870F0101F151F777F057F03FF7FFF7B89
:10173000FF7FFF3BFF0FFF07FF027F027F437F7B9F
:101740007F0C0F01FFB9FFF9FFB3FFE0FFEEFFEEE3
:10175000FFEEFFEDFFFBFFF6FE74FC74FCA4FCCC77
:10176000FC38F8080F0A0F7B7FC2FF01FF3FFF3DE7
:10177000FF3FFF1DFF07FF83FFC1FF417F617F3DEB
:101780003F06070000F0F0D8F868F884FCBEFEBE03
:10179000FE86FE68F8D8F8F8F830F0B0F0A0E04027
:1017A000400000000007070E0F1A1F0E0F1E1F0A31
:1017B0000F1E1F0E0F1A1F0F0F1F1F070703030017
:1017C0000000000000E0E0B0F0D0F008F87CFC7C05
:1017D000FC0CFCD0F0B0F0F0F060E060E040C080C5
:1017E00080000000000F0F1D1F141F1D1F1D1F155F
:1017F0001F1D1F1C1F151F1F1F1E1F0F0F07070078
:10180000000000E0E0F0F070F000F06FFF6AFF6FA2
:10181000FF60FE54FC3AFA04F430F070F070F0E827
:10182000E8D0D00F0F1F1F3F3F1B1F3F3F1B1F3F25
:101830003F1B1F3F3F1B1F3F3F1B1F3F3F0F0F071C
:10184000070303C0C0E0E0E0E000E0DEFED4FEDE1F
:10185000FEC0FCA8F874F408E860E0E0E0E0E0D046
:10186000D0A0A01F1F3F3F3E3F363F3E3F363F3E8A
:101870003F363F3E3F363F3E3F363F3E3F1E1F0F07
:101880000F0707C0C0E0E0A0E0A0E0A0E0A0E0609B
:10189000E098F8FCFCFCFC6CFC08F8F0F020E0C0E0
:1018A000C000003F3F1F1F3B3F1B1F3B3F1B1F3C18
:1018B0003F1B1F3B3F1B1F3B3F1B1F0D0F0607031B
:1018C0000300008080C0C040C040C040C040C0C0D5
:1018D000C030F0F8F8F8F8D8F810F0E0E040C08038
:1018E0008000003F3F3F3F373F373F373F373F386C
:1018F0003F373F373F373F363F363F1B1F0C0F0701
:10190000070000101054A851A2458A152A54A85166
:10191000A2458A152A54A851A2458A152A54A851CD
:10192000A2458A152A51A2458A152A54A851A245D2
:101930008A152A54A851A2458A152A54A851A245AD
:101940008A152A54A8458A152A54A851A2458A15F1
:101950002A54A851A2458A152A54A851A2458A158D
:101960002A54A851A2152A54A851A2458A152A54CE
:10197000A851A2458A152A54A851A2458A152A546D
:10198000A851A2458A08080000FFFF81FFEDFF2D46
:101990003F2D3F213F3F3F00001F1F707F457F418C
:1019A0007F457F707F1F1F00001C1C223E4D7F550E
:1019B0007F597F223E1C1C101055AA55AA55AA55C6
:1019C000AA55AA55AA55AA55AA55AA55AA55AA551F
:1019D000AA55AA55AA55AA55AA1010000000000041
:1019E00000000000000000000000000000000000F7
:1019F00000000000000000000000000010383C3E25
:101A0000162C180000008080400000000000081C18
:101A10001E14080000000201000400FF7F9F6F17E2
:101A20000B0B050305030503050305FF55AA00007D
:101A30000000000000000000000000FF55AA0000A8
:101A40000000000000000000000000FF55AA000098
:101A50000000000000000000000000FF55AA000088
:101A60000000000000000000000000FFFDF2E8D0D0
:101A7000A040804080408040804080000000000006
:101A80000000000000000000000000408040804096
:101A900080408040804080408040800305030503F3
:101AA0000503050305030503050305000000000009
:101AB0000000000000000000000000030503050313
:101AC00005030503050B17AF5FFFFF0000000000D3
:101AD00000000000000000AA55FFFF000000000009
:101AE00000000000000000AA55FFFF0000000000F9
:101AF00000000000000000AA55FFFF0000000000E9
:101B000000000000000000AA55FFFF408040804018
:101B100080408040A0D0E8F6FDFFFF0305020000F2
:101B200000000000000000000000000000000000B5
:101B300000000000000000000000000000000000A5
:101B40000000000000000000000000C04080000015
:101B50000000000000000000000000000000000085
:101B60000000000000000000000000000000000075
:101B700000000000000000808040800000000000A5
:101B80000000000000000002050307000000000044
:101B90000000000000000000000000FFFFFFFFFF4A
:101BA000FFFFFFFFFFFFFFFFFFFFFFFFFFFFFFFF45
:101BB000FFFFFFFFFFFFFFFFFFFFFF55AA55AA55DD
:101BC000AA55AA55AA55AA55AA55AA55AA55AA551D
:101BD000AA55AA55AA55AA55AA55AA736B73EBF331
:101BE000EB736B736B73EBF3EB736BD6CED6CFD714
:101BF000CFD6CED6CED6CFD7CFD6CE736B73EBF3B0
:101C0000EB736B73EBF3AB570FFFFFD6CE16AF57EB
:101C1000FFFE3838FFFFAA5500FFFFFFFF00AA555F
:101C2000FFFF3838FFFFAA5500FFFFFFFF00AA554E
:101C3000FFFF3838FFFFAA5500FFFF736BF0EAF58E
:101C40007F7F3838FFFFAA5500FFFFD6CED7CFD70A
:101C5000CED6CED6CFD7CAE5F0FFFFFFFF0FA753F2
:101C6000EBF36B736B73EBF3EB736BFFFF00AA5536
:101C7000FFFF1C1CFEFEAF570FD6CEFFFF00AA557C
:101C8000FFFF1C1C7FFFFAF568736BFFFFF0EAD5BE
:101C9000CBD7CED6CED7CFD7CED6CEFFFFFF7FBF06
:101CA000DFDF5FDFBFBF7FFFFFFFFFFFC19EBFBF63
:101CB0003F556F15AA95AB96CDE3FF3FDFEFF77B5E
:101CC000FD56FE55BB57AF5FBF7FFFE0DF97BF9567
:101CD0002F552B552A95AA95CAE5F0FF3FCF73FDE6
:101CE000538F3F3FCFF74F3FFFFFFFFCFBF7F5F66A
:101CF000C5D0BCBF7F6E6B16A893CF0737415A4A39
:101D00005A4A02E9ABEBABEB0707FF00401F550F48
:101D1000D59FC0EBF269726B7000FF0FF305B551F0
:101D2000AD40B75BAD40B75BAD00FF007F402E4FCD
:101D3000A2C3AECFAE4F22432E00FF1FCFAFF7F3AB
:101D4000FDFE32FEF104FEAA04F1FFF8F6EFDBB669
:101D5000BD7F467FBFB0D7E2F0FFFF3FDF3FFFE32D
:101D6000DD36A236DDE3FF3FDF3FFF0073770C1A5D
:101D70005A185F185A1A0C777300FFFF7FBF3F8312
:101D80003D7E7E6E75BB84BC7FFFFF80BDACBD9C7D
:101D90008D8C8D8C8D9DBDADBD80FF07A850857F3E
:101DA0007F557F557F7F8550A807FF80AA95B38513
:101DB000A3B5B3B5A385B395AA80FF0307C71010D9
:101DC000C1030003C11010C70703FF80808C80C0CF
:101DD000E4C0F0C0E4C0808C8080FFFFFF1FEF17DD
:101DE000F7F7C0F7F717EF1FFFFFFFFFFF007FC3F5
:101DF0006EC27EE65AC73F00FFFFFF3F7F7F1FE7AF
:101E0000BBFD7DFDBBE71F7F7F3FFFC082990007C1
:101E10008ECF0DCF8E07009982C0FFBDB5FF400B5E
:101E2000011A011D011E0907082C113A19230D2B57
:101E30000C34061D0927113B191C092D1C0708002D
:101E4000B00000A170E150964F26900F1D070C00C6
:101E50009669004AE44A0048444000806810000F38
:101E600099FB8F9DBDBBFB77D4D4DF1F1A1AFE7F71
:101E70005D5DFF805A0000A0A4AA0010BA3400FFE4
:101E80005953F3FF9B9B9EFFB9B996FF9595D19F40
:101E9000F4940FFC295F91FF1838F8FF9294FFFF2C
:101EA00095D5F7BFB5DDD7F18F81F1F788C8F77900
:101EB000C6467909FD9B090196F80082818280500F
:101EC0007162007756560076763700A2B773010725
:101ED0007206007827500073347400775176007FC3
:101EE00055F7004771100032477200736473001594
:101EF000A2750061679400009F6060F4F2F6F2083A
:101F00000B000202020100090400000102020000AD
:101F10000524001001052401010104240206052402
:101F20000600010705810310004009040100020AB0
:101F30000000000705020240000007058302400080
:101F40000000252F11241FBECFEFDAE0DEBFCDBF8A
:101F500011E0A0E0B1E0E4EFF4E602C005900D92DC
:101F6000A036B107D9F726E0A0E6B1E001C01D9286
:101F7000A43EB207E1F71FE0C2EADFE004C0219708
:101F8000FE010E944031C13AD107C9F70E94C02525
:101F90000C9478320C940000EF92FF920F931F93F1
:101FA000CF93DF93EC018B01040F111D77FF02C06B
:101FB00060E070E080E19DE8E92E94E0F92EA80150
:101FC0000134110514F040E450E064177507ECF497
:101FD000C038D105B8F4AB01F7013C2F849FD00184
:101FE000A0781124A30F4770E40FF11D9491AB5911
:101FF000BE4F222319F03C91932B03C090953C9146
:1020000093239C936F5F7F4FDACFDF91CF911F9126
:102010000F91FF90EF9008954F925F926F927F9291
:102020008F929F92AF92BF92CF92DF92EF92FF92E8
:102030000F931F93CF93DF934C013B01C42FD0E04C
:1020400081E090E05C01AC1ABD0A442455244C1A8E
:102050005D0A440C551CC12CD12C822F8170F82EA6
:102060000F5F122F1270CC16DD060CF046C0B7FCC5
:1020700006C0219782E0480E511CA40CB51C8FEFBE
:10208000C81AD80AC601880F991F0196A80EB91E52
:10209000FF20C1F04C2F440F400F2E2DB3016C1BBD
:1020A0007D0BC601880D991D0E94CC0F4C2D440F4D
:1020B000400F2E2DB3016C197D09C4018C0F9D1F9B
:1020C0000E94CC0F112379F24C2F440F400F2E2D7C
:1020D000B3016C1B7D0BC4018C199D090E94CC0FB0
:1020E0004C2D440F400F2E2DB3016C197D09C401F6
:1020F0008C1B9D0B0E94CC0FB6CFDF91CF911F910F
:102100000F91FF90EF90DF90CF90BF90AF909F9096
:102110008F907F906F905F904F900895E5E6F1E08B
:10212000A0E0B8E000800EBC8111012C1197A0FD49
:10213000FDCF0192B9F70DB408950F931F93CF937C
:10214000DF938C01C0E0D0E0F801EC0FFD1F64913B
:10215000662371F0E0917105F09172050190F081B4
:10216000E02D81E795E00995892B11F02196ECCFC0
:10217000CE01DF91CF911F910F9108952F923F9241
:102180004F925F926F927F928F929F92AF92BF9287
:10219000CF92DF92EF92FF920F931F93CF93DF9333
:1021A00000D000D000D0CDB7DEB77B01411551057E
:1021B00009F429C1FA01D490319674914E5F5F4FB2
:1021C000AD2DB0E0222309F1E72FE695E695E695DF
:1021D000AE2EB12CE1E0F0E0372F377011F4E0E0E3
:1021E000F0E0EA0DFB1DAE9F5001AF9FB00CBE9F0B
:1021F000B00C1124033011F4AA0CBB1C2A9DF00171
:102200002B9DF00D11244E0F5F1F0F3F09F402E0CC
:102210005C01AA0EBB1E1A141B040CF0F4C080381B
:1022200091050CF0F0C09701270F311D121613060F
:102230000CF0E9C0F0E4EF16F1040CF0E4C0411535
:10224000510509F4E0C02E2D27702D839701F7FE6C
:1022500002C0295F3F4F63E0359527956A95E1F706
:10226000F22FF7FE05C06D81662311F0FFEFF20F2C
:1022700097FF05C022273327281B390B02C020E017
:1022800030E0E0E8AE16B10424F060E8762E781A6B
:1022900001C07D2C721AEF2E0F2E000CFF08FF3F9D
:1022A0001CF4CE2CC09401C0C12CE1E0672F6770F4
:1022B00009F4E0E07695769576959E2E970EE90CDA
:1022C000F11C69E0E616F1041CF0E8E09E2E9F1A6E
:1022D0001C2D1F0F60E81603800D911D1124820F25
:1022E000931F61E070E00D8002C0660F771F0A94B3
:1022F000E2F7033011F0E1E001C0E2E0EE2EF12C54
:10230000CD9C200D311D1124E29E5001E39EB00CA6
:10231000F29EB00C11246A01CA0CDB1C97012150FB
:102320003109A20EB31E4A0D5B1DBB24BA94B69EA2
:102330009001B79E300D1124290140945094F90D5D
:10234000FE83A719B109EA9FA02D1124B0E0E79DF3
:10235000A00DB11D11242E81121709F454C09C0147
:102360002B593E4F4A015601612C671409F443C0B2
:10237000F5013490369EF001379EF00D1124FA835A
:10238000E983E095F095FC83EB83023019F45C82DD
:102390004B8210C00B3F19F41A8219820BC0F40152
:1023A0003490369EF001379EF00D1124E095F095A3
:1023B000FC83EB8317FD09C0F9013080EB81E32139
:1023C000F9813E2E3F2AF9013082FD81FF2359F029
:1023D00017304CF4F901E058FF4F20803C80232057
:1023E0003A80322830828E0C9F1CAE0CBF1C639446
:1023F0002F5F3F4FBACF1F5FCA0EDB1E4A0F5B1F16
:1024000080589F4FA8CF26960FB6F894DEBF0FBE18
:10241000CDBFDF91CF911F910F91FF90EF90DF9093
:10242000CF90BF90AF909F908F907F906F905F9074
:102430004F903F902F900895E5E6F1E081118FEFE6
:10244000002481938193819381930394D1F708951C
:102450000F931F93CF93DF93809164008E7F8093BF
:10246000640080917A00806480937A0080917A0081
:1024700086FDFCCFC0917800D09179000E94212385
:102480008E0120E030E0980111270027600F711FB6
:10249000821F931F611571058105910511F00E943E
:1024A0006A3080916400816080936400DF91CF91F5
:1024B0001F910F91089520916B05282329F4909185
:1024C0006A05982381E009F480E00895CF93DF93B3
:1024D000C5E6D5E08D818E830E94D7238D83DF9161
:1024E000CF9108958FB7F8944091610150916201A6
:1024F00060916301709164018FBF80916D05942F8D
:10250000981B80916E05882331F090936F0510928F
:102510006E0580E0089520916C05921740F49F5F4E
:102520009217A0F491E093BF889513BE089581E0BF
:1025300080936E0540936D058091680590916905C3
:102540000196909369058093680581E008952F9224
:102550003F924F925F926F927F928F929F92AF9233
:10256000BF92CF92DF92EF92FF920F931F93CF9380
:10257000DF93282E10E066246394712C94E2A92E38
:10258000B12C24E1822E912C3CE2C32ED12C42E0CE
:10259000E42EF12CCAE0D0E054E3452E512C0E94E9
:1025A00072128823E1F30E94661280E80E945B1297
:1025B0008111115080E10E945B1281111F5F84E044
:1025C0000E945B12882369F0113041F0123009F447
:1025D000ACC01111ADC089E197E0ACC08FE196E0CD
:1025E000A9C088E00E945B128111A2C017FD12E011
:1025F000812F63E00E94FE30392E192F80E00E9467
:102600001C120AEF20E04FEE57E060E070E087E038
:1026100090E00E94BE10709283056092820522E0D5
:1026200022120FC0D0927F05C0927E05D0927D0508
:10263000C0927C05909281058092800586EE97E09D
:1026400011C033E0231210C0B0927F05A0927E0526
:10265000B0927D05A0927C059092810580928005C4
:102660008AED97E00E949D10F0927F05E0927E0532
:10267000F0927D05E0927C05B0928105A0928005E4
:102680008EEC97E00E949D10D0937F05C0937E054D
:10269000D0937D05C0937C05D0928105C0928005C2
:1026A00085EC97E00E949D10D0937F05C0937E0536
:1026B000D0937D05C0937C055092810540928005A2
:1026C0008EEB97E00E949D10D0937F05C0937E050E
:1026D000D0937D05C0937C058CE390E090938105B9
:1026E0008093800585EB97E00E949D10F0927F0516
:1026F000E0927E05F0927D05E0927C05232D38E086
:102700002302C00111248C9690938105809380054B
:1027100083EB97E00E949D10109283051092820532
:1027200085E695E00E94F3233ACF85E994E002C064
:1027300080E090E0DF91CF911F910F91FF90EF909B
:10274000DF90CF90BF90AF909F908F907F906F90D1
:102750005F904F903F902F9008953F924F925F92DD
:102760006F927F928F929F92AF92BF92CF92DF92A1
:10277000EF92FF920F931F93CF93DF936C015B0156
:10278000442E322E502EFE2C802F880F942F981B13
:1027900010E04601800E911EE4013401690E711CA7
:1027A000C615D70544F42F2D432DB501CE010E9447
:1027B000CC0F2196F5CFCC27DD27C01BD10BCC0F3A
:1027C000DD1FC30DD11D2197A00EB11EC601840DC2
:1027D000911D801B910BEF2C8E0121E0452DB50141
:1027E00001970E940C1022E0452DB501C4010E9402
:1027F0000C10DF91CF911F910F91FF90EF90DF9020
:10280000CF90BF90AF909F908F907F906F905F9090
:102810004F903F9008956F927F928F929F92AF92C8
:10282000BF92CF92DF92EF92FF920F931F93CF93BD
:10283000DF935C010E947C30AC01982F990F990FB7
:10284000940F68E0F62EF90E20E830E02F193109D8
:1028500037FF02C02F5F3F4F6901D594C79485E0D1
:10286000849F9001859F300D1124C0E8D0E0C21BE9
:10287000D30BD695C79516E0190F36018FEF681A5E
:10288000780A3EE1832E912C0E9472128823E1F394
:102890000E94661284E00E945B12811126C0E12C26
:1028A00005E020E14F2D68E170E0C6010E94AD1304
:1028B000EE24E3942DE0412F69E170E0C3010E9412
:1028C000AD13D0937F05C0937E05D0937D05C09353
:1028D0007C059092810580928005C5010E949D1023
:1028E00085E695E00E94F323CFCFDF91CF911F9132
:1028F0000F91FF90EF90DF90CF90BF90AF909F909F
:102900008F907F906F9008952F923F924F925F9299
:102910006F927F928F929F92AF92BF92CF92DF92EF
:10292000EF92FF920F931F93CF93DF9300D000D0CD
:10293000CDB7DEB7382E292EF62E17E0619F102D69
:10294000112436E0310F39831B823FEF360F3A8373
:10295000862E912C1D5F9FE4A92EB12C2AE4C22E55
:10296000D12C0E9472128823E1F30E94661288E043
:102970000E945B12811171C084E00E945B12811180
:102980006EC080E10E945B12882319F03B813F5F9B
:102990003B8380E80E945B12882319F03B81315011
:1029A0003B833B8137FF02C03A813B833B81832FCE
:1029B000330F990BB4010E9420318C838B83E12C5F
:1029C00005E0298146E36AE070E086E490E00E9439
:1029D000AD13EE24E394212F44E36BE070E087E431
:1029E00090E00E94AD13632C722C8EE0482E512C87
:1029F00000E00F15B9F0B0927F05A0927E05B0926D
:102A00007D05A0927C055092810540928005F301DE
:102A1000819191913F010E949D100F5FF7E04F0E51
:102A2000511CE7CFD0927F05C0927E05D0927D05E4
:102A3000C0927C053C81E7E03E02C00111240E9665
:102A4000909381058093800583EB97E00E949D1011
:102A500085E695E00E94F32384CF8FEF01C08B8140
:102A60000F900F900F900F90DF91CF911F910F91CA
:102A7000FF90EF90DF90CF90BF90AF909F908F909E
:102A80007F906F905F904F903F902F9008958F921E
:102A90009F92AF92BF920F931F93CF93DF93CDB7C7
:102AA000DEB7A1970FB6F894DEBF0FBECDBF19A257
:102AB000423008F44AE08E010F5D1F4F842E912CA6
:102AC000A12CB12CA50194010E94CD30E62FB901B3
:102AD000CA0101501109EA3014F4E05D01C0E95C5B
:102AE000D801EC93232B242B252B61F7011511051D
:102AF00071F0F80101900020E9F73197AF01401B18
:102B0000510BB80181E795E00E94D32102C080E01B
:102B100090E0A1960FB6F894DEBF0FBECDBFDF9157
:102B2000CF911F910F91BF90AF909F908F9008957C
:102B3000CF92DF92EF92FF92CF93DF936C01990FC8
:102B4000EE08FF08F7FE1FC0E0917105F0917205D5
:102B50000190F081E02D6DE281E795E00995EC01AF
:102B600066277727CB016C197D098E099F094AE0FA
:102B70000E9447158C0F9D1FDF91CF91FF90EF9022
:102B8000DF90CF9008954AE0C701B601DF91CF9161
:102B9000FF90EF90DF90CF900C9447150F931F9309
:102BA000CF93DF938C01C0E0D0E020E047E060E00D
:102BB00070E0CE010E94CC0F2196C038D105A9F754
:102BC000C0E0D0E021E046E060E070E0CE010E948D
:102BD000CC0F2196C038D105A9F781E090E0909301
:102BE0007F0580937E0590937D0580937C0590936F
:102BF000810580938005F801908180918705981761
:102C000019F083E794E002C08CE794E00E949D10E5
:102C10008EE290E090937F0580937E0590937D05F2
:102C200080937C05C1E0D0E0D0938105C0938005FE
:102C300088E894E00E949D1082E490E090937F05E4
:102C400080937E0590937D0580937C05D0938105CC
:102C5000C09380056091250670E080E090E04AE036
:102C60000E94471586E590E090937F0580937E054E
:102C700090937D0580937C05D0938105C09380055A
:102C800085E894E00E949D1084E690E090937F0593
:102C900080937E0590937D0580937C05D09381057C
:102CA000C0938005F8018181F4E68F9FC001112453
:102CB000DF91CF911F910F910C949815FC01809199
:102CC000CD06811103C08FEF9FEF08959FB7F89451
:102CD00082E08093E9002091F20030E012161306A2
:102CE00014F421E030E02115310559F0289884E6EC
:102CF0008093CC068091F10080838091F20088233C
:102D000019F09FBFC90108958BE68093E800F9CFC1
:102D1000CF93DF931F92CDB7DEB76983DC01ED91CE
:102D2000FC910280F381E02D41E050E0BE016F5F35
:102D30007F4F09950F90DF91CF91089583E08093A5
:102D4000E9008091F200882319F08AE38093E8007B
:102D50000895CF93DF931F92CDB7DEB7FC01848532
:102D6000958597FD05C02FEF3FEF358724870BC072
:102D7000CE0101960E945E16019719F4898190E0B8
:102D800002C08FEF9FEF0F90DF91CF9108950F93C7
:102D90001F93CF93DF931F92CDB7DEB78C01FC0159
:102DA0008485958597FF0EC0CE0101960E945E1620
:102DB000019719F4298130E002C02FEF3FEFF801AD
:102DC00035872487F801848595850F90DF91CF9111
:102DD0001F910F910895FC018485958597FD0BC087
:102DE0009FB7F89482E08093E9008091F2009FBF42
:102DF00090E0019608959FB7F89482E08093E900EF
:102E00008091F2009FBF90E008957F928F929F92F1
:102E1000AF92BF92CF92DF92EF92FF920F931F93E8
:102E2000CF93DF936C015B017A0180910B018823C2
:102E300009F46BC08091CD06882309F466C08091A7
:102E4000CB0680FF05C08091E00082608093E000A7
:102E5000E70110E00AEF83E0982E90E4792E2AE350
:102E6000822E209709F448C08FB7F8949092E90019
:102E70009091E80095FF06C09091F200272D291B44
:102E8000922F01C090E08FBF91110AC0015009F448
:102E90003CC061E070E080E090E00E944623E1CF1A
:102EA000292F30E0C217D3070CF49C2F8FB7F8946A
:102EB0009092E9002091E80025FF1CC0292F30E006
:102EC000C21BD30BF501915020F041914093F100CA
:102ED000FACFA20EB31E112319F08092E80009C0A8
:102EE0009091E80095FD06C08092E80011E02097DF
:102EF00009F010E08FBFB5CF1111B6CF5D9884E611
:102F00008093CE061E141F0444F081E090E0F60189
:102F10009383828380E090E001C0C701DF91CF916D
:102F20001F910F91FF90EF90DF90CF90BF90AF90E7
:102F30009F908F907F9008952F923F924F925F9233
:102F40006F927F928F929F92AF92BF92CF92DF92B9
:102F5000EF92FF920F931F93CF93DF93CDB7DEB71E
:102F600061970FB6F894DEBF0FBECDBF8C01809184
:102F70006F0690917006009731F00E94DB3110923D
:102F8000700610926F0610926E06F8019491292F28
:102F900030E0309372062093710631968491282F89
:102FA00030E030937406209373063196E4912E2F0F
:102FB00030E03D832C83F8013396E4912E2F30E0EE
:102FC0003F832E83F8013496E4912E2F30E0398729
:102FD0002887F8013596E4912E2F30E03B872A8729
:102FE000F8013696E4912E2F30E03D872C87F801CA
:102FF0003796E4912E2F30E03F872E87F8013896E0
:103000002490312C31968490912C989F600111244A
:1030100031E8C3163FE3D30624F4C601880F991F95
:1030200002C08FEF9FEF0E944631FC0120E030E0AC
:103030002C153D0539F0108248E0418332962F5F10
:103040003F4FF6CF80936F0690937006A12CB12C62
:10305000AC14BD0409F4B9C03501660C771CA0910D
:103060006F06B0917006A60DB71DF5013A96E00FF8
:10307000F11F24912F712C9311968C9111978E7FB3
:1030800011968C93609171067091720687EE820F93
:10309000873008F07EC0C5010E940C312C017B01F5
:1030A000CE010196288B698B0E948324442D429582
:1030B000407F9A8144FA882780F93B813E7F382BF4
:1030C00069896F71660F317C632B6B83892F8B70DD
:1030D000842B877F8A8340916F0650917006FA0196
:1030E000E60DF71D9081392F3F719981907E932BCA
:1030F00099832889293169F42C813D814216530630
:1031000009F04BC02E813F81E216F30609F045C05D
:103110004FC02A3169F4288539854216530609F0D3
:1031200049C02A853B85E216F30609F043C040C03A
:103130002E3159F484608A8350928A054092890521
:10314000F0928C05E0928B050DC02F3159F484600C
:1031500088608A835092D9054092D805F092DB05A9
:10316000E092DA0580916E06883198F4282F30E0DD
:10317000F901EE0FFF1F2E0F3F1FF901EA5DF94F16
:1031800029813A814B812083318342838F5F8093F1
:103190006E063FEFA31AB30A5BCF2C853D8542161E
:1031A000530601F72E853F85E216F306D9F608C0CF
:1031B000846009C042145304A9F6E814F90491F696
:1031C0008A81846088608A83CDCF61960FB6F89437
:1031D000DEBF0FBECDBFDF91CF911F910F91FF904A
:1031E000EF90DF90CF90BF90AF909F908F907F90A7
:1031F0006F905F904F903F902F9008958091D306ED
:1032000081110DC082E08093CF0684E08093D006C8
:103210001092D2061092D10681E08093D3068FECF3
:1032200096E008951F920F920FB60F9211248F937C
:103230009F938091E1009091E100937F9093E10052
:1032400083FF0FC01092E90091E09093EB00109281
:10325000EC0092E39093ED001092CD0698E09093ED
:10326000F00082FF20C093E09093E9009091F2007B
:10327000992319F09AE39093E8009091CE06992350
:1032800039F09091CE0691509093CE06992389F112
:103290009091CC06992339F09091CC06915090935F
:1032A000CC06992341F184FF10C08091E2008E7E0C
:1032B00081608093E2008091E1008F7E8093E10045
:1032C0008091CB068E7E806111C080FF16C08091F8
:1032D000E2008E7E80618093E2008091E1008E7E2C
:1032E0008093E1008091CB068E7E81608093CB0637
:1032F00004C05D9ACDCF289AD6CF9F918F910F9021
:103300000FBE0F901F9018951F920F920FB60F923D
:103310001124CF92DF92EF92FF920F931F932F937E
:103320003F934F935F936F937F938F939F93AF934D
:10333000BF93EF93FF93CF93DF93CDB7DEB76C9737
:10334000DEBFCDBF1092E9008091E80083FFEDC1A0
:1033500068E0CE0145960E94B32582EF8093E80095
:103360008D8987FF05C09091E80090FFFCCF03C0D6
:103370009EEF9093E800982F907609F0C6C09E8942
:103380002F89188D91110CC0803829F48091CA06BC
:103390008093F10002C01092F1001092F10048C138
:1033A000422F50E0512B913051F4811141C14130F5
:1033B000510509F03DC18091CA068D7F0BC0933045
:1033C00061F4811135C14130510509F031C180915D
:1033D000CA0682608093CA062BC1953041F4809161
:1033E000E80080FFFCCF20682093E30021C19630E5
:1033F00009F05FC0EB8CFC8C1092E9001092C806BB
:103400001092C706123091F51092C6061092C506AA
:103410000E94812599E0BE016F5F7F4FDB01E92F9C
:103420001D92EA95E9F799831A8391E09E8390EAC9
:1034300098879AEF99872091C7063091C806275F31
:103440003F4F3C832B838D831092E9001092C80676
:103450001092C706F092C606E092C50649E050E019
:1034600080E00E945A250E948125E2C0F092C606A3
:10347000E092C5060E94FE18DC011296ED90FC90C9
:103480001397E114F10409F4C0C0D701ED91FC9148
:103490000480F581E02DBE016B5E7F4FC701099569
:1034A000009719F00CF0C4C0C7C0F701E084F184A4
:1034B000E8CF973009F4C0C0983021F481E08093C0
:1034C000F100B6C0993009F0B3C0837009F0B4C000
:1034D000EBE3F1E081E021E036E39081992361F0B4
:1034E0008093E9002093EB0091919093EC0030934E
:1034F000ED008F5F873089F78EE78093EA001092A6
:10350000EA008F898093CD0693C08B8D9C8D10929D
:10351000E9001092C8061092C7069093C6068093E1
:10352000C506898D811156C08E899D89913A59F4BD
:10353000813209F081C047E050E064E071E080E052
:103540000E945A2575C0913209F076C0833289F401
:10355000888D90E0982F88272F89822BA0E0B0E0FB
:103560008093000190930101A0930201B0930301A5
:103570005FC0803269F48091E80082FFFCCF67E091
:1035800084E091E00E94B3258BEF8093E80006C0B1
:10359000823209F04DC08F8980930B018091C9065A
:1035A000882319F0EEEFFAE002C0E0E0F8E0809145
:1035B000040190910501A0910601B0910701803BA3
:1035C0009440A105B10509F07BC080910B0180FFFB
:1035D00093C076C00E94FE18DC0112960D911C91DA
:1035E00013970115110541F1D801ED91FC9101905E
:1035F000F081E02DBE016B5E7F4FC80109958111FE
:1036000017C0F80100851185ECCF113009F44EC0C8
:10361000133091F48F89882309F445C0823081F4F6
:1036200040E867E087EF98E00E94DA2F882321F0D6
:103630008EEF8093E80079C081E28093EB0075C043
:10364000813029F440E86BE08BEE98E0EDCF8330D9
:1036500099F70E94FE18DC011296ED90FC901397EA
:103660008E010F5F1F4F6801E114F10479F0D7015B
:10367000ED91FC910680F781E02DB801C701099515
:10368000080F111DF701E084F184EECFD8011C92E0
:10369000F60101900020E9F73197BF016C197D090F
:1036A00040E0C601C1CF65ED78E002C069ED78E089
:1036B0006115710509F2FB01449150E080E840CFAB
:1036C0000FB6F894A895809160008861809360009F
:1036D000109260000FBEA895EE3F2AE0F20739F085
:1036E0008091FE0A9091FF0A91838083A1CF10926E
:1036F000FF0A1092FE0A9CCFEE3F8AE0F80731F0F5
:10370000808191819093FF0A8093FE0A87E797E773
:10371000918380839BE088E10FB6F894A89580930D
:1037200060000FBE9093600083CF6C960FB6F89444
:10373000DEBF0FBECDBFDF91CF91FF91EF91BF9163
:10374000AF919F918F917F916F915F914F913F9139
:103750002F911F910F91FF90EF90DF90CF900F90DE
:103760000FBE0F901F901895CF92DF92EF92FF92AD
:10377000CF93DF936B017C01C22F14160CF083C032
:1037800077FD81C080917106909172066817790764
:103790000CF079C0F7FC77C06091730670917406E5
:1037A000E616F7060CF06FC08E9DD0018F9DB00D10
:1037B0009E9DB00D1124AC0DBD1DAA0FBB1F8091A5
:1037C0006F0690917006A80FB91F8C9111969C916D
:1037D0001197582F5F71C3304CF0CA304CF0CD3088
:1037E0004CF0C0310CF04FC0E3E005C0E0E003C096
:1037F000E1E001C0E2E0F0E0E55EF14E64912FEF20
:10380000250F2F3130F430E02F5B3E4FF90120813E
:1038100001C020E4E62FE223B1F1807E852B87FDF5
:1038200004C092608C9311969C938F71883111F42F
:10383000415007C08631E1F3873119F443300CF071
:1038400042E0DFEFD40F96012F5F3F4FB901C70170
:103850002C2F4D2F0E94B41BB601C70101972C2FAE
:103860004D2F0E94B41B960121503109B901C701A7
:103870002C2F4D2F0E94B41BB601C70101962C2F8F
:103880004D2F0E94B41BDF91CF91FF90EF90DF90FE
:10389000CF9008952F923F924F925F926F927F92B6
:1038A0008F929F92AF92BF92CF92DF92EF92FF9250
:1038B0000F931F93CF93DF9300D000D000D0CDB7EC
:1038C000DEB749017C836B839E838D83562F382F0F
:1038D000202E002E000C3308261A310867FD339481
:1038E00037FE03C03194219431082A82501714F016
:1038F0001FEF01C011E06E2D0E2C000C770BDB01C9
:10390000A81BB10987FDB395CD01B7FF03C0919501
:1039100081959109382EF82EF1943E151CF0BFEFD9
:10392000B98302C0E1E0E9832A812319622D022CC8
:10393000000C770B6F197109F7FC739577FF02C0C4
:103940006F5F7F4F7595679557FD66C037FD64C003
:10395000C52E052E000CDD08609071067090720671
:10396000C614D7040CF058C0A32E032E000CBB08BD
:103970008091730690917406A816B9060CF04CC09D
:103980008B819C818C199D0997FF03C0919581952E
:103990009109ED81FE81EA19FB09F7FF03C0F1955A
:1039A000E195F109E80F4E2E512C64157505A4F12F
:1039B000A69CC001A79C900DB69C900D1124C80E2A
:1039C000D91ECC0CDD1CA0906F06B0907006CA0CFE
:1039D000DB1CD601FC9111969C911197892F817067
:1039E0009B7F11969C93EE23B9F0411115C09F2F38
:1039F0009F719651923010F1F7FF0EC090E0E1E018
:103A0000F0E0D401CC90D0908705CD1411F0E0E027
:103A1000F0E08E179F0791F0501302C03E1571F031
:103A2000822F880F8F1514F02319510F28160CF4CC
:103A30008BCFBA812B0FE9813E0F86CF26960FB62A
:103A4000F894DEBF0FBECDBFDF91CF911F910F91D4
:103A5000FF90EF90DF90CF90BF90AF909F908F90AE
:103A60007F906F905F904F903F902F9008954F926E
:103A70005F926F927F928F929F92AF92BF92CF92FE
:103A8000DF92EF92FF920F931F93CF93DF932B015F
:103A90006901902EA62E752CB82E892E440FC42FA6
:103AA000C195DC2FDD0FDE5F10E04A2C572CE12E94
:103AB000EB0C0A2D0C1B9601492DB2018B2D982D74
:103AC0000E944A1CEB2CEC1A0A2D011B9601492D71
:103AD000B2018B2D982D0E944A1CEB2CE11A0C2F61
:103AE0000A0D9601492DB2018B2D982D0E944A1C7A
:103AF000EC2EEB0C012F0A0D9601492DB2018B2DF6
:103B0000982D0E944A1C1D177CF01F5F812F880F83
:103B1000990B01968D0F911DD7FD9A95282FCD17E2
:103B200024F0181754F401C02D2FCF5F8C2F880F6D
:103B3000990B0196D22FD80F01C0D82FC7FDB5CF52
:103B4000DF91CF911F910F91FF90EF90DF90CF9079
:103B5000BF90AF909F908F907F906F905F904F90AD
:103B600008950F931F93CF93DF93EB01E0978C01A0
:103B70000051110960E170E081E796E00E94A724FE
:103B8000AE01D7FF02C040E050E01016110614F05D
:103B900001E010E09B0120583109241735070CF48F
:103BA000A9019C0128533109201731070CF4890120
:103BB000BA01C801DF91CF911F910F9108950F9322
:103BC0001F93CF93DF931F92CDB7DEB78C01FC011B
:103BD00020812F70822F29830E948F24482F4770C5
:103BE000F801A1818A2F82958695877092819370C2
:103BF000990F990F990F982BAF71092F10E08091B1
:103C0000710690917206089FF001099FF00D189FB0
:103C1000F00D1124B0E0EA0FFB1FEE0FFF1F8091A3
:103C20006F0690917006E80FF91F90819F71905177
:103C30002981963010F04F5F01C04E5F80818F77F1
:103C40008083BD01C8010E94B41B0F90DF91CF910A
:103C50001F910F910895AF92BF92CF92DF92EF9292
:103C6000FF920F931F93CF93DF936B017C01B22ED2
:103C7000E80114160CF061C0A8815091870577FD0A
:103C80005CC08091710690917206681779070CF0FC
:103C900054C0F7FC52C06091730670917406E6162A
:103CA000F7060CF04AC08E9DF0018F9DF00D9E9D91
:103CB000F00D1124EC0DFD1DEE0FFF1F80916F061E
:103CC00090917006E80FF91F90818181282F217053
:103CD00082FD0FC097FF0DC030E061E070E0A513DA
:103CE00002C060E070E02617370719F08260908309
:103CF0008183AA24AA94A40E96012F5F3F4FB90195
:103D0000C7018E012B2D4A2D0E942B1EB601C70123
:103D100001972B2D4A2D0E942B1E9601215031090F
:103D2000B901C7012B2D4A2D0E942B1EB601C701D8
:103D300001962B2D4A2D0E942B1EDF91CF911F91B2
:103D40000F91FF90EF90DF90CF90BF90AF900895CC
:103D5000962F6091710670917206869F900D1124C6
:103D6000940FA92F092E000CBB0BE0917306F09164
:103D700074066E9F90016F9F300D7E9F300D112451
:103D8000A217B307ACF497FD13C0E0916F06F09152
:103D900070069D01220F331FE20FF31F818181FF07
:103DA000DFCFCD010E9420319B01BC01C9010895E4
:103DB0006FEF7FEFCB0108952F923F924F925F926A
:103DC0006F927F928F929F92AF92BF92CF92DF922B
:103DD000EF92FF920F931F93CF93DF93CDB7DEB790
:103DE0002B970FB6F894DEBF0FBECDBF69837A83E1
:103DF0008B839C83612C6AE0262E312CA62C062C0A
:103E0000000CBB088091730690917406A816B90641
:103E10000CF004C1C0907106CA94750154E0EE0C18
:103E2000FF1C5A95E1F74B815C81E40EF51EC7013A
:103E30000F969E838D83270192E0491A5108A501B0
:103E40004F5F5F4F58874F83C7FC93C08C2C0C2C5F
:103E5000000C9908940144E0220F331F4A95E1F7C2
:103E600089819A81820F931F9B878A870F968F384B
:103E7000910508F07CC04D815E814F35510508F0F9
:103E800076C08091710690917206A89EF001A99E5D
:103E9000F00DB89EF00D1124E80DF91DEE0FFF1F77
:103EA00080916F0690917006E80FF91FD080118104
:103EB0003D2D3F71712E72949FE079220AEF232FDE
:103EC00049ED59E1B7018A859B8539870E94BE106B
:103ED000809173069091740601973985A816B906EA
:103EE000ECF480917106909172064F815885489F3D
:103EF000F001499FF00D589FF00D11248E0E9F1E6A
:103F0000880C991CE0916F06F0917006E80DF91D80
:103F100080818F7192EE980F923068F11F70872D1B
:103F20008295807F182B912F9670832F8F719430FC
:103F300091F50BEF20E047EB59E1B7018A859B85AE
:103F40000E94BE1011FF11C0809168059091690513
:103F5000B1010E940C31262F23700BEF43E059E191
:103F6000B7018A859B850E94BE10D7FC2CC0CA94DD
:103F70006BCF639443CF8E3111F021E201C020E278
:103F800002E049ED59E1B7018A859B8539870E9496
:103F9000BE103985C3CF395F3F71353098F69D2DFE
:103FA000907ED92ED82AD5FECDCF8A859B850A96BC
:103FB000D6FC02C020E001C021E045E859E1B20191
:103FC0000E94CA23BFCF12FDD2CF10FF03C0EFEF74
:103FD000F8E002C0E1E0F1E1272D220F13FF0EC04F
:103FE0008091680590916905B1010E940C31617062
:103FF000260FAF01B7018A859B850DC0AF01B701C0
:104000008A859B850E94CA2322E045E859E1B201D6
:104010008A859B850A960E94CA23A9CF2B960FB644
:10402000F894DEBF0FBECDBFDF91CF911F910F91EE
:10403000FF90EF90DF90CF90BF90AF909F908F90C8
:104040007F906F905F904F903F902F9008952F92A8
:104050003F924F925F926F927F928F929F92AF9218
:10406000BF92CF92DF92EF92FF920F931F93CF9365
:10407000DF9300D01F92CDB7DEB77C0160E0262F22
:10408000062E000C330B809173069091740628174E
:10409000390754F570E0E72F072E000CFF0B409115
:1040A000710650917206E417F507E4F4249FC001ED
:1040B000259F900D349F900D1124E80FF91FEE0FEE
:1040C000FF1F80916F0690917006E80FF91F908195
:1040D00081819F778E7F8D7F84608F7090838183B5
:1040E0007F5FD9CF6F5FCBCFD7019C918091870540
:1040F000981303C0E6EDF5E002C0E7E8F5E040E024
:104100006F01BEE4CB0ED11CD6018C91481708F08C
:104110004BC0842F90E09C01220F331F820F931F0E
:104120009F01280F391FD90116965C9116975F7071
:1041300017968C911797782F7F7182958695877047
:1041400018966C916370660F660F660F682B20914E
:10415000710630917206629FC001639F900D112419
:10416000870F911D880F991F20916F06309170065F
:104170008901080F191FD8018C9111969C9121E09B
:10418000608130918705631301C020E0806820FBC7
:1041900090F998605295507F9F70952BD8018C9321
:1041A00011969C934F5FB0CFD12C1701BEE42B0E1C
:1041B000311CF1018081D81608F073C0ED2DF0E0BC
:1041C000CF01880F991FE80FF91FEE0DFF1D7681B3
:1041D0007F708781082F0F71982F92959695977011
:1041E00080858370880F880F880F892BC084C2FA5E
:1041F000CC24C0F810E0282F30E03B832A83809144
:10420000710690917206289FF001299FF00D389F4A
:10421000F00D1124E00FF11FEE0FFF1F20916F062C
:1042200030917006E20FF31F6081E181F1E0D70168
:104230005C9140918705541301C0F0E0AA81BB81D5
:10424000A89FA001A99F500DB89F500D1124400FA9
:10425000511F440F551FD901A40FB51F6068F0FB13
:10426000E0F9C0FAE3F9872F8295807FEF70E82BA1
:104270006C931196EC93872F69830E948F24482FAB
:10428000477069816F71673109F44F5F28016A8057
:104290007B8000E09701C301B2010E94371DD394D7
:1042A00088CF10E080916E06181708F066C0812F45
:1042B00090E09C01220F331F280F391FF901EA5D9E
:1042C000F94F7181A9014A595A4FFA01EF53FF4F33
:1042D000808183FB662760F982958F70319690818B
:1042E00091709295907F892BF901E85DF94F40819B
:1042F00046954F7121E0D7013C9190918705391384
:1043000001C020E090E050E0A0917106B0917206EB
:104310004A9FF0014B9FF00D5A9FF00D1124E80FBA
:10432000F91FEE0FFF1FA0916F06B0917006EA0F04
:10433000FB1F30810181B72FB47072FF04C0762F4C
:104340007227A1E002C070E0A0E0A0FB35F970FB8D
:1043500036F930830183BB2371F070E030E06217DF
:10436000730749F44C015A0101E0970143E0C5018C
:10437000B4010E94371D1F5F95CF0F900F900F90D3
:10438000DF91CF911F910F91FF90EF90DF90CF9031
:10439000BF90AF909F908F907F906F905F904F9065
:1043A0003F902F900895CF92DF92EF92FF920F935C
:1043B0001F93CF93DF936C017A018B01C0E0D0E0B3
:1043C000CE15DF0589F0D8016D918D01D601ED91F3
:1043D000FC910190F081E02DC6010995892B11F423
:1043E0007E0102C02196ECCFC701DF91CF911F91D2
:1043F0000F91FF90EF90DF90CF9008956F927F9292
:104400008F929F92AF92BF92CF92DF92EF92FF92E4
:104410000F931F93CF93DF935C016B01102F98E0F4
:10442000892E912CE42EE694E694E694EE2DF0E0AD
:10443000CA0187709927892B41F5D5011796CD912F
:10444000DC911897C6019927BE010E942031992757
:10445000D50115966D917C911697EC9FA001ED9F6B
:10446000500DFC9F500D1124840F951FFB01E80F88
:10447000F91F111106C0C22FC09520812C23208363
:1044800027C0C081C22BC08323C0C22FD0E0477099
:10449000642E712C7F0183E0EE0CFF1C8A95E1F7FE
:1044A0009E0101C0220F4A95EAF7012FA701B6012C
:1044B000C5010E94FE21C4018619970902C0D59545
:1044C000C7958A95E2F72C2FA701485F5F4FAACFC7
:1044D000DF91CF911F910F91FF90EF90DF90CF90E0
:1044E000BF90AF909F908F907F906F9008955F9254
:1044F0006F927F928F929F92AF92BF92CF92DF92F4
:10450000EF92FF920F931F93CF93DF93EC016A30EA
:1045100061F48D859E859C878B872C898F859889F2
:10452000820F911D988B8F8777C0CB84DC84693094
:1045300031F489E0C80ED11CDC86CB866DC0162F05
:10454000EF84F8889DEFC9169FEFD90654F48B8944
:1045500090E004962B853C85820F931F9C878B8768
:104560005BC08F819885C816D9068CF78DEFE81649
:104570008FEFF80664F389859A85E816F9063CF70B
:10458000603208F41FE780EE810F9FE9910F9A31A6
:1045900018F49FEFE91AF90A8C3011F08B3119F4F5
:1045A0009FEFE91AF90A869594E0899F500111243A
:1045B000360184E0680E711C46011170F401EC199B
:1045C000FD09EA0DFB1DE15CF14E8491111103C060
:1045D0008F70582E04C0582E52948FE058228C8130
:1045E000882361F001E089899A89892B09F000E02C
:1045F0002FE0A701B401CE010E94FE210989252DDB
:10460000A701B401CE010E94FE219FEF891A990AE9
:104610008614970499F69BCF81E090E0DF91CF91CB
:104620001F910F91FF90EF90DF90CF90BF90AF90D0
:104630009F908F907F906F905F90089508950E9453
:1046400073323FB7F8948091DC069091DD06A0911B
:10465000DE06B091DF0626B5A89B05C02F3F19F0F6
:104660000196A11DB11D3FBFBA2FA92F982F8827F2
:10467000820F911DA11DB11DBC01CD0142E0660F4D
:10468000771F881F991F4A95D1F708958F929F929F
:10469000AF92BF92CF92DF92EF92FF926B017C01BB
:1046A0000E9421234B015C01C114D104E104F104F7
:1046B000F1F00E942123DC01CB0188199909AA0994
:1046C000BB09883E9340A105B10570F321E0C21AF1
:1046D000D108E108F10888EE880E83E0981EA11C3D
:1046E000B11CC114D104E104F10419F7DDCFFF902E
:1046F000EF90DF90CF90BF90AF909F908F900895F4
:104700001F920F920FB60F9211242F933F938F9306
:104710009F93AF93BF938091610190916201A091AB
:104720006301B09164013091DB0623E0230F2D3744
:1047300020F40196A11DB11D05C026E8230F0296A5
:10474000A11DB11D2093DB0680936101909362014E
:10475000A0936301B09364018091DC069091DD0623
:10476000A091DE06B091DF060196A11DB11D8093D8
:10477000DC069093DD06A093DE06B093DF06BF91C2
:10478000AF919F918F913F912F910F900FBE0F90FE
:104790001F9018950F9303E00E94BE100F9108958B
:1047A0002D9A0895BC0180E090E00C9446238FB1CF
:1047B0008095807F669B88601C9B84600895109222
:1047C00060013E983F9808953E9A3F9A81E0809319
:1047D0006001089582E090E00E94853081110C9480
:1047E000E4230C94DF2380E00C948E10FC018EE116
:1047F00081831382128215821482E25BFF4F108242
:104800000895FC0180EA868390859C6F908781875C
:1048100093859C6F9387848796859C6F96878787FF
:1048200091899C6F918B828B94899C6F948B858BE3
:1048300097899C6F978B808F928D9C6F928F838FBF
:10484000958D9C6F958F868F90A19C6F90A381A36F
:1048500093A19C6F93A384A396A19C6F96A387A317
:1048600091A59C6F91A782A794A59C6F94A785A7FB
:1048700097A59C6F97A780AB92A99C6F92AB83ABD7
:1048800095A99C6F95AB86AB90AD9C6F90AF81AFB7
:1048900093AD9C6F93AF84AF96AD9C6F96AFDF01E5
:1048A000DF968C9312969C9112979C6F12969C9314
:1048B000129713968C9312969C9112979C6F129656
:1048C0009C93129713968C9312969C9112979C6FBF
:1048D00012969C93129713968C9312969C91129712
:1048E0009C6F12969C93129713968C9312968C91B0
:1048F00012978C6F12968C93129713961C9260836A
:10490000CF010C94F623FC018EE480839181828197
:10491000807C828398709160977F91830895CF9374
:10492000DF9300D0CDB7DEB7682F70E0660F771F3A
:10493000615E714E42E050E0CE0101960E947330FC
:1049400089819A810F900F90DF91CF910895FC019A
:104950009B0140815181249FB001259F700D349FA0
:10496000700D112442815381249FC001259F900D19
:10497000349F900D11240895CF92DF92EF92FF9211
:104980000F931F93CF93DF936115710529F1FB01FD
:104990003181432F42954695477022812370220F23
:1049A000220F220F242BFC01E45FFE4F4081518136
:1049B000249FF001259FF00D11243F71E30FF11D9D
:1049C000EE0FFF1FDC01A65FBE4F2D913C91E20F61
:1049D000F31F208120682083FC01E25FFE4F0081ED
:1049E000118140E0EC01C45FDE4F7C01F6EFEF1A6D
:1049F000FEEFFF0A842F042E000C990B80179107FD
:104A000014F568817981869FD001879FB00D969FAC
:104A1000B00D112490E0292F092E000C330B26171E
:104A200037077CF42A0F3B1F220F331FF701C0808A
:104A3000D180F601E20FF31F81818D7F81839F5F1B
:104A4000EACF4F5FD7CFDF91CF911F910F91FF90AA
:104A5000EF90DF90CF9008954091C7065091C8061F
:104A60002091C5063091C60642175307B4F49091C1
:104A7000E8009570E1F39091E80092FD19C08093F1
:104A8000F1008091C7069091C80601968F7399270F
:104A9000892B19F48EEF8093E8008091C7069091DE
:104AA000C80601969093C8068093C70681E00895D2
:104AB00080E00895DF92EF92FF920F931F93CF93C0
:104AC000DF93D82E8A017B01E40EF51EEB01CE1593
:104AD000DF0571F0D7FE03C0FE01849101C088811B
:104AE0000E942C2521968111F2CF8FEF9FEF01C0FC
:104AF000C801DF91CF911F910F91FF90EF90DF9050
:104B000008950F931F93CF93DF931F92CDB7DEB716
:104B100082E0898342E450E06FEF7EE180E80E940A
:104B20005A250E94FE18DC0112960D911C911397D4
:104B30000115110569F0D801ED91FC910280F38116
:104B4000E02DBE016F5F7F4FC801099597FF07C039
:104B500089810F90DF91CF911F910F910895F801F6
:104B600000851185E5CF615030F02091F100FC0106
:104B700020830196F8CF289884E68093CC06089588
:104B8000CF93DF93CDB7DEB7E3970FB6F894DEBFD0
:104B90000FBECDBF789484B5826084BD84B581603A
:104BA00084BD85B5826085BD85B5816085BD8091F8
:104BB0006E00816080936E00109281008091810070
:104BC0008260809381008091810081608093810068
:104BD000809180008160809380008091910082604C
:104BE00080939100809191008160809391008091E9
:104BF00090008160809390008091C10084608093D8
:104C0000C1008091C10082608093C1008091C10089
:104C100081608093C1008091C30081608093C30054
:104C20008091C00082608093C0008091C20081604A
:104C30008093C20080917A00846080937A00809192
:104C40007A00826080937A0080917A0081608093FC
:104C50007A0080917A00806880937A001092CD0665
:104C60001092CA061092CB068091D7008160809383
:104C7000D70080EA8093D80089B5806189BD89B565
:104C8000826089BD09B400FEFDCF61E070E080E084
:104C900090E00E9446238091D8008F7C80618093B1
:104CA000D8008091E000807F8093E0008091E10057
:104CB0008E7E8093E1008DE08093E200559A209AE9
:104CC000EEEFFFE7859194918B3F9C4D19F481E0C5
:104CD0008093C90681EC80937C0085B1806F85B993
:104CE00084B1877E84B984B1876E84B95E9A5F98F7
:104CF0008AB1806D8AB9769A6E9881B3806F81BBD4
:104D0000899880B38D7080BB80E58CBD81E08DBDBE
:104D100085E090E00E94D2235F9A85E090E00E94B7
:104D2000D2235E985C98E6E6F4E08DE08E0F9491D5
:104D30009EBD00000DB407FEFDCF31968E13F7CF58
:104D40005C9A81E880936400809165008160809323
:104D5000650085E695E00E94F3230E94D72387FF34
:104D600024C05C9885EA8EBD00000DB407FEFDCF1F
:104D70005C9A2E982F982D98809164008062809381
:104D8000640081E083BF889513BEFCCF2D980E94FC
:104D9000D7238478843871F00E94D72384718431BA
:104DA00031F188EC90E00E94D2230E94D72382FD4B
:104DB000EDCF3AC00E94D02388EC90E00E94D2232D
:104DC0002F9882E090E00E9485308F3F29F06FEFAE
:104DD00082E090E00E948D3084EF91E00E94D22327
:104DE0002F9A0E94D72384788438D9F3D5CF0E9494
:104DF000D02388EC90E00E94D2232E9882E090E0AD
:104E00000E948530882329F060E082E090E00E94D3
:104E10008D3084EF91E00E94D2232E9A0E94D723F6
:104E200084718431D9F3BDCF0E94D0230E94EA233C
:104E300081E090E00E94853082FBDD24D0F881E0A3
:104E400090E00E94853081FF89C0D1102E9800EF3C
:104E50001FEFE8E08E2E912C0E94D72386FF04C01E
:104E60002E9A2F9A2D9A7AC0DD2029F00430110550
:104E700011F42E9A2F9881E00E948E10A80117FF3E
:104E800004C044275527401B510B477055279801F4
:104E900017FF02C0295F3F4F73E0359527957A953C
:104EA000E1F717FF06C021503109B401641B750BEF
:104EB000AB01C9019695982F88279795879560E053
:104EC00070E02401441A550ADC01A058BF4F3D018F
:104ED0002F3FBFEF3B074CF42F5F3F4F685A7F4F88
:104EE000C301603B710581F721C0DC01A750BE4FB3
:104EF000E12CF12C2F3FEFEF3E0709F466C5F701D7
:104F0000E60FF71FEA54FC4FE4915D01A618B708BD
:104F1000A80EB91EF0E01F01042E01C0220C0A9455
:104F2000EAF7F501C0802C2820824FC585E695E080
:104F30000E94F3238FE090E00E94D2230F5F1F4F67
:104F40000931110509F088CFDD2011F02F9A2D9835
:104F500080E991E00E94D2230E94D02382E390E076
:104F60000E94D2230E94D7238111F8CF80E1809341
:104F70006C050E9428120E94EA2310928305109269
:104F8000820580918605823021F0833009F487C143
:104F90006EC41092250687E895E00E94F62386ED00
:104FA00095E00E94F62382E00E94A712009709F480
:104FB00073C10E949C1701E010E00E9472128823C6
:104FC000E1F30E94661288E00E945B12811164C1C5
:104FD00081E00E941C1210937F0500937E051093C0
:104FE0007D0500937C05109381050093800585E67F
:104FF00095E00E94F323E1CF20E080916E06281710
:1050000008F4C2C1C3010E94272080E00E941C1244
:1050100060E170E083010E5F1F4FC8010E94A7246A
:105020006850710908970E94B11D6B8B7C8B8D8B2A
:105030009E8B8D899E8908979E8B8D8B6FEF7FEF5E
:10504000CE0143960E94A7240E94DC1EC3010E9449
:10505000CE1585E695E00E94F32360E170E0C8017B
:105060000E94A7244B015C01F8E08F1A910828E008
:10507000A21AB108188A1F861A8A198A1C861B86EA
:105080001E861D8660E170E081E796E00E94A724FD
:105090007DA36CA39FA38EA3212C312C412C512CDA
:1050A000188E1F8A10E031E03F8FA301425B5F4FF3
:1050B0005BA34AA30E9472128823E1F30E94661246
:1050C0000E94D72384FD90C10E94D72387FDB6C1DB
:1050D0000E94D72385FDDCC10E94D72386FD04C230
:1050E0000E94D72383FD2DC231E03F8F0E94D7233A
:1050F00082FD29C268EF86166FEF960624F4B8EF9A
:105100008B2E99249A9478EFA7167FEFB70624F494
:10511000A8EFAA2EBB24BA948CA19DA1479788160C
:1051200099062CF08CA09DA088E1881A91088EA188
:105130009FA14797A816B9062CF0AEA0BFA098E192
:10514000A91AB108C501B4010E94B11D6F87788BFF
:10515000898B9A8B89899A8908979A8B898B6401A4
:10516000C401409697FD0F96DC01F4E0B595A79534
:10517000FA95E1F7B88FAF8B7501C501409697FDA1
:105180000F962C01E4E055944794EA95E1F780E00E
:105190000E941C126FEF7FEFCE010F960E94A72492
:1051A0000E94DC1E80916805909169056EE170E0B7
:1051B0000E940C31262F217089899A89B701681BBA
:1051C000790B6F5F7F4F8F85988944EB51E0F60133
:1051D000E81BF90BCF010E94CA23113009F4C6C1A4
:1051E000C3010E94CE1585E695E00E94F32388E076
:1051F0000E945B128111E9C184E00E945B12882346
:1052000009F458CF113009F444C2123009F452CFD6
:105210008091710690917206489EF001499EF00DB2
:10522000589EF00D11242F89388DE20FF31FEE0FD9
:10523000FF1F80916F0690917006E80FF91F808123
:105240009181282F2F71492F4170807E822B87FDFD
:10525000DFC196EE920F933020F4807E803209F405
:10526000EAC388E991E09A83898381E991E09C838C
:105270008B8362E0CE0101960E94841481111ACFC3
:105280002F89388DF30133832283558244828091A4
:1052900025068F3F09F0C8C51092860572CE109280
:1052A000250687E895E00E94F62386ED95E00E94AA
:1052B000F62383E00E94A712009771F30E949C17C7
:1052C00087E8682E85E0782E10E86FE780E090E0B0
:1052D000E5E6F1E070E0262F30E070FD0EC0DF0162
:1052E0008F37910521F4A158BF4F1C9214C0A80F0D
:1052F000B91F11964C9111970DC0611102C0108217
:105300000AC07F01E20EF31EA70141505109DA01E4
:105310004C91D7014C937F5FE058FF4F7830E9F60E
:10532000019661508038910599F685E695E00E94D6
:10533000F32361E070E080E090E00E94462311508A
:1053400021F6F301908180918705981719F083E782
:1053500094E002C08CE794E00E940B14F301E25B3E
:10536000FF4F308180E090E0831708F045CEFC01CC
:10537000EE0FFF1FE80FF91FE60DF71D369622818D
:10538000246022830196F0CF822F90E0AC01440F7D
:10539000551F840F951FAC014B595A4FFA01EF531B
:1053A000FF4F30813F713931E9F43196308132FF5E
:1053B00019C0FC01E95DF94F808183FB882780F9E2
:1053C0008CA71DA681E090E0D3014C913091870518
:1053D000431302C080E090E0ECA5FDA5E817F907B3
:1053E00009F410C32F5F09CE123021F56F89788D33
:1053F0007A8F698F5C8E4B8E41E0698D7A8D8B8DB3
:105400009C8D0E94A81E69837A838B839C831616C9
:1054100017060CF059CE60E170E0CE0101960E94B3
:10542000A7244B015C0178E0871A910888E0A81A4C
:10543000B1084ACE3F8DA30EB11C46CE123021F5E5
:105440004F89588D5A8F498F5C8E4B8E4FEF698DE7
:105450007A8D8B8D9C8D0E94A81E69837A838B83A5
:105460009C83161617060CF033CE60E170E0CE0177
:1054700001960E94A7244B015C0158E0851A91080F
:1054800068E0A61AB10824CE3F8DA31AB10820CE39
:10549000123021F54F89588D5A8F498F5C8E4B8E73
:1054A0004FEF698D7A8D8B8D9C8D0E94A81E69832C
:1054B0007A838B839C83161617060CF00DCE60E161
:1054C00070E0CE0101960E94A7244B015C0158E0D8
:1054D000851A910868E0A61AB108FECD3F8D832F8A
:1054E00090E0881A990AF8CD123021F54F89588D2D
:1054F0005A8F498F5C8E4B8E41E0698D7A8D8B8DF2
:105500009C8D0E94A81E69837A838B839C831616C8
:1055100017060CF0E5CD60E170E0CE0101960E9427
:10552000A7244B015C0158E0851A910868E0A61A8F
:10553000B108D6CD3F8D832F90E0880D991D4C0189
:10554000CFCD33E0D2CDC401409697FD0F96807F3A
:105550004C0148E0841A9108C501409697FD0F96CA
:10556000807F5C0158E0A51AB108C4CD2114310434
:1055700009F436CED3019C9180918705981719F0D4
:10558000EFEFF8E002C0E1E0F1E180916805909171
:1055900069056AE070E00E940C316170D1012C91C4
:1055A0002F70220F260F89899A89B701681B790B02
:1055B000685F7F4F8F859889A601481B590BCA01E8
:1055C000AF0108960E94CA230BCE123009F014CE08
:1055D0008B859D859295990F907E8F71892BD10136
:1055E00011968C9311978D85869586958695982F23
:1055F000937012968C9112978C7F892B12968C93B4
:10560000C3010E942720C1010E94DF1D11E0F4CDDB
:1056100050E061E070E0D301EC9130918705E31335
:1056200002C060E070E04617570709F012CE93FF02
:1056300010CEEAA1FBA1008120E030E0201730F578
:10564000A901440F551F420F531FC301840F951F1B
:10565000FC013796DC0117968C91682F6F7170E012
:10566000AF89B88D6A177B0771F48295869587702C
:1056700091819370990F990F990F892B90E0841560
:10568000950509F4C4C12F5F3F4FD8CF212C312C91
:1056900011CD8091710690917206489EF001499E4D
:1056A000F00D589EF00D11244F89588DE40FF51F11
:1056B000EE0FFF1F80916F0690917006E80FF91FA3
:1056C000818181FFF7CC2114310409F4F3CC86E009
:1056D000E6E1F1E0DE01119601900D928A95E1F785
:1056E00063E0CE0101960E948414882319F0813072
:1056F00009F186C0B10185E695E00E94BC249F892E
:105700009F71842D8295880F807E892BD1011196FF
:105710008C931197C201E3E096958795EA95E1F79E
:10572000837012969C9112979C7F892B8B7F129687
:105730008C9396C0B10185E695E00E94BC249F89B8
:105740009F71842D8295880F807E892BF101818342
:10575000C20173E0969587957A95E1F783709281FF
:105760009C7F892B8283C3010E942720D1018C91C9
:105770008F700E948F24F10120812F70977041E07B
:10578000490F8181982F9F71692F70E079A768A7D1
:1057900082958695877032813370330F330F330FC4
:1057A000832BA82FB0E0BBA7AAA7830168A579A582
:1057B0008AA59BA50E942B1EEF89F88DFA8FE98F91
:1057C0005C8E4B8E41E0698D7A8D8B8D9C8D0E9415
:1057D000A81E6F83788789879A871616170674F430
:1057E00060E170E0CE0107960E94A7244B015C01A6
:1057F000F8E08F1A910828E0A21AB10812E05ACCFA
:10580000B10185E695E00E94BC24B10185E695E0F2
:105810000E94BC248B859D859295990F907E8F71F7
:10582000892BD10111968C9311978D85869586953C
:105830008695982F937012968C9112978C7F892B56
:1058400012968C9360E170E0CE010B960E94A72423
:105850004B015C01B8E08B1A9108E8E0AE1AB10880
:10586000C3010E942720212C312C10E023CC10E012
:1058700044244394512C9AE0E92EF12C2CE2A22EE0
:10588000B12C34E3832E912C4CE3642E712C52E026
:10589000C52ED12C0E9472128823E1F30E94661259
:1058A00080E80E945B12882329F0112311F0115027
:1058B00001C012E080E10E945B12882329F01230BF
:1058C00011F01F5F01C010E084E00E945B1288238A
:1058D00091F00E942812113019F0123019F071C0A5
:1058E00083E070C080916001882319F00E94DF235B
:1058F00002C00E94E42380E00E941C120AEF20E014
:105900004FEE57E060E070E087E090E00E94BE104C
:105910005092830540928205F0927F05E0927E05C9
:10592000F0927D05E0927C05B0928105A092800501
:1059300086EE97E00E949D10F0927F05E0927E0532
:10594000F0927D05E0927C05909281058092800521
:105950008AED97E00E949D10F0927F05E0927E050F
:10596000F0927D05E0927C05709281056092800541
:1059700080916001811103C082E391E002C08CE359
:1059800091E00E949D10D0927F05C0927E05D0923A
:105990007D05C0927C05B8E01B02C00111248C96E5
:1059A000909381058093800583EB97E00E949D1082
:1059B000109283051092820585E695E00E94F323FC
:1059C00069CF82E080938605DCCA4115510581F0DC
:1059D000F701E60FF71FEA54FC4FE491F0E0042CC6
:1059E00002C0F595E7950A94E2F7CC90EC29EC9388
:1059F000FFEFEF1AFF0A1196E8E5EE16F10409F041
:105A000079CA6ACAF3018181865F8183EBCCC301C5
:105A100006961C01240E351E2114310409F44ACBCC
:105A2000EF89F88DFC87EB875E864D86C1010E9469
:105A3000DF1D11E03FCBAAA1BBA18C91883128F0DA
:105A400081EA91E00E940B1435CB2B3159F02C31B7
:105A500071F02A3109F02ECB44E851E05E8F4D8F72
:105A60003AE00AC021E831E03E8F2D8F04C04EE8B5
:105A700051E05E8F4D8F33E039A3F12C39A1832F94
:105A800090E0AC01415051095FA74EA70E947212ED
:105A90008823E1F30E94661280E10E945B1281116B
:105AA000F39480E80E945B128111FA9488E00E94CE
:105AB0005B128111FFCA84E00E945B128823C9F047
:105AC000ED8DFE8DEF0DF11DF7FCFA958491E82F19
:105AD000F0E0EB5BFE4FE491D30111969C9111979E
